{
  "contractName": "TestContractERC20",
  "abi": [
    {
      "inputs": [
        {
          "internalType": "address",
          "name": "_defaultDepositTokenAddress",
          "type": "address"
        }
      ],
      "stateMutability": "nonpayable",
      "type": "constructor"
    },
    {
      "anonymous": false,
      "inputs": [
        {
          "indexed": true,
          "internalType": "address",
          "name": "owner",
          "type": "address"
        },
        {
          "indexed": true,
          "internalType": "address",
          "name": "spender",
          "type": "address"
        },
        {
          "indexed": false,
          "internalType": "uint256",
          "name": "value",
          "type": "uint256"
        }
      ],
      "name": "Approval",
      "type": "event"
    },
    {
      "anonymous": false,
      "inputs": [
        {
          "indexed": true,
          "internalType": "address",
          "name": "from",
          "type": "address"
        },
        {
          "indexed": true,
          "internalType": "address",
          "name": "to",
          "type": "address"
        },
        {
          "indexed": false,
          "internalType": "uint256",
          "name": "value",
          "type": "uint256"
        }
      ],
      "name": "Transfer",
      "type": "event"
    },
    {
      "inputs": [
        {
          "internalType": "address",
          "name": "owner",
          "type": "address"
        },
        {
          "internalType": "address",
          "name": "spender",
          "type": "address"
        }
      ],
      "name": "allowance",
      "outputs": [
        {
          "internalType": "uint256",
          "name": "",
          "type": "uint256"
        }
      ],
      "stateMutability": "view",
      "type": "function"
    },
    {
      "inputs": [
        {
          "internalType": "address",
          "name": "spender",
          "type": "address"
        },
        {
          "internalType": "uint256",
          "name": "amount",
          "type": "uint256"
        }
      ],
      "name": "approve",
      "outputs": [
        {
          "internalType": "bool",
          "name": "",
          "type": "bool"
        }
      ],
      "stateMutability": "nonpayable",
      "type": "function"
    },
    {
      "inputs": [
        {
          "internalType": "address",
          "name": "account",
          "type": "address"
        }
      ],
      "name": "balanceOf",
      "outputs": [
        {
          "internalType": "uint256",
          "name": "",
          "type": "uint256"
        }
      ],
      "stateMutability": "view",
      "type": "function"
    },
    {
      "inputs": [],
      "name": "decimals",
      "outputs": [
        {
          "internalType": "uint8",
          "name": "",
          "type": "uint8"
        }
      ],
      "stateMutability": "view",
      "type": "function"
    },
    {
      "inputs": [
        {
          "internalType": "address",
          "name": "spender",
          "type": "address"
        },
        {
          "internalType": "uint256",
          "name": "subtractedValue",
          "type": "uint256"
        }
      ],
      "name": "decreaseAllowance",
      "outputs": [
        {
          "internalType": "bool",
          "name": "",
          "type": "bool"
        }
      ],
      "stateMutability": "nonpayable",
      "type": "function"
    },
    {
      "inputs": [],
      "name": "defalutDepositTokenAddress",
      "outputs": [
        {
          "internalType": "address",
          "name": "",
          "type": "address"
        }
      ],
      "stateMutability": "view",
      "type": "function"
    },
    {
      "inputs": [],
      "name": "depositTXDeadlineSeconds",
      "outputs": [
        {
          "internalType": "uint256",
          "name": "",
          "type": "uint256"
        }
      ],
      "stateMutability": "view",
      "type": "function"
    },
    {
      "inputs": [
        {
          "internalType": "uint256",
          "name": "",
          "type": "uint256"
        }
      ],
      "name": "deposits",
      "outputs": [
        {
          "internalType": "address",
          "name": "depositOwner",
          "type": "address"
        },
        {
          "internalType": "uint256",
          "name": "depositAmount",
          "type": "uint256"
        },
        {
          "internalType": "address",
          "name": "depositContractAddress",
          "type": "address"
        },
        {
          "internalType": "bool",
          "name": "isWithdrawed",
          "type": "bool"
        }
      ],
      "stateMutability": "view",
      "type": "function"
    },
    {
      "inputs": [
        {
          "internalType": "address",
          "name": "spender",
          "type": "address"
        },
        {
          "internalType": "uint256",
          "name": "addedValue",
          "type": "uint256"
        }
      ],
      "name": "increaseAllowance",
      "outputs": [
        {
          "internalType": "bool",
          "name": "",
          "type": "bool"
        }
      ],
      "stateMutability": "nonpayable",
      "type": "function"
    },
    {
      "inputs": [],
      "name": "lastWidthrow",
      "outputs": [
        {
          "internalType": "uint256",
          "name": "",
          "type": "uint256"
        }
      ],
      "stateMutability": "view",
      "type": "function"
    },
    {
      "inputs": [],
      "name": "minimalDepositAmountInWEI",
      "outputs": [
        {
          "internalType": "uint256",
          "name": "",
          "type": "uint256"
        }
      ],
      "stateMutability": "view",
      "type": "function"
    },
    {
      "inputs": [],
      "name": "name",
      "outputs": [
        {
          "internalType": "string",
          "name": "",
          "type": "string"
        }
      ],
      "stateMutability": "view",
      "type": "function"
    },
    {
      "inputs": [],
      "name": "symbol",
      "outputs": [
        {
          "internalType": "string",
          "name": "",
          "type": "string"
        }
      ],
      "stateMutability": "view",
      "type": "function"
    },
    {
      "inputs": [],
      "name": "totalSupply",
      "outputs": [
        {
          "internalType": "uint256",
          "name": "",
          "type": "uint256"
        }
      ],
      "stateMutability": "view",
      "type": "function"
    },
    {
      "inputs": [
        {
          "internalType": "address",
          "name": "recipient",
          "type": "address"
        },
        {
          "internalType": "uint256",
          "name": "amount",
          "type": "uint256"
        }
      ],
      "name": "transfer",
      "outputs": [
        {
          "internalType": "bool",
          "name": "",
          "type": "bool"
        }
      ],
      "stateMutability": "nonpayable",
      "type": "function"
    },
    {
      "inputs": [
        {
          "internalType": "address",
          "name": "sender",
          "type": "address"
        },
        {
          "internalType": "address",
          "name": "recipient",
          "type": "address"
        },
        {
          "internalType": "uint256",
          "name": "amount",
          "type": "uint256"
        }
      ],
      "name": "transferFrom",
      "outputs": [
        {
          "internalType": "bool",
          "name": "",
          "type": "bool"
        }
      ],
      "stateMutability": "nonpayable",
      "type": "function"
    },
    {
      "inputs": [],
      "name": "withdrawPeroid",
      "outputs": [
        {
          "internalType": "uint256",
          "name": "",
          "type": "uint256"
        }
      ],
      "stateMutability": "view",
      "type": "function"
    },
    {
      "inputs": [
        {
          "internalType": "address[]",
          "name": "path",
          "type": "address[]"
        },
        {
          "internalType": "uint256",
          "name": "amountOut",
          "type": "uint256"
        }
      ],
      "name": "testGetAmountsIn",
      "outputs": [
        {
          "internalType": "uint256[]",
          "name": "",
          "type": "uint256[]"
        }
      ],
      "stateMutability": "view",
      "type": "function"
    },
    {
      "inputs": [
        {
          "internalType": "address[]",
          "name": "path",
          "type": "address[]"
        },
        {
          "internalType": "uint256",
          "name": "amountIn",
          "type": "uint256"
        }
      ],
      "name": "testGetAmountsOut",
      "outputs": [
        {
          "internalType": "uint256[]",
          "name": "",
          "type": "uint256[]"
        }
      ],
      "stateMutability": "view",
      "type": "function"
    },
    {
      "inputs": [],
      "name": "getWETH",
      "outputs": [
        {
          "internalType": "address",
          "name": "",
          "type": "address"
        }
      ],
      "stateMutability": "view",
      "type": "function"
    },
    {
      "inputs": [],
      "name": "getUniswapAddress",
      "outputs": [
        {
          "internalType": "address payable",
          "name": "",
          "type": "address"
        }
      ],
      "stateMutability": "view",
      "type": "function"
    },
    {
      "inputs": [
        {
          "internalType": "uint256",
          "name": "amount",
          "type": "uint256"
        }
      ],
      "name": "makeDepositInDefaultToken",
      "outputs": [],
      "stateMutability": "nonpayable",
      "type": "function"
    },
    {
      "inputs": [
        {
          "internalType": "address",
          "name": "contractAddress",
          "type": "address"
        },
        {
          "internalType": "uint256",
          "name": "amount",
          "type": "uint256"
        }
      ],
      "name": "makeDepositERC20",
      "outputs": [],
      "stateMutability": "nonpayable",
      "type": "function"
    },
    {
      "inputs": [],
      "name": "makeDepositETH",
      "outputs": [],
      "stateMutability": "payable",
      "type": "function"
    }
  ],
  "bytecode": "0x60e0604052737a250d5630b4cf539739df2c5dacb4c659f2488d600760006101000a81548173ffffffffffffffffffffffffffffffffffffffff021916908373ffffffffffffffffffffffffffffffffffffffff160217905550620d2f006080908152506706f05b59d3b2000060a09081525061070860c0908152503480156200008857600080fd5b5060405162002edb38038062002edb83398181016040526020811015620000ae57600080fd5b81019080805190602001909291905050506040518060400160405280600481526020017f74657374000000000000000000000000000000000000000000000000000000008152506040518060400160405280600181526020017f740000000000000000000000000000000000000000000000000000000000000081525081600390805190602001906200014392919062000226565b5080600490805190602001906200015c92919062000226565b506012600560006101000a81548160ff021916908360ff1602179055505050600760009054906101000a900473ffffffffffffffffffffffffffffffffffffffff16600560016101000a81548173ffffffffffffffffffffffffffffffffffffffff021916908373ffffffffffffffffffffffffffffffffffffffff16021790555080600860006101000a81548173ffffffffffffffffffffffffffffffffffffffff021916908373ffffffffffffffffffffffffffffffffffffffff16021790555050620002d5565b828054600181600116156101000203166002900490600052602060002090601f016020900481019282601f106200026957805160ff19168380011785556200029a565b828001600101855582156200029a579182015b82811115620002995782518255916020019190600101906200027c565b5b509050620002a99190620002ad565b5090565b620002d291905b80821115620002ce576000816000905550600101620002b4565b5090565b90565b60805160a05160c051612bca6200031160003980610fd252806115aa5280611df8525080610fae52806111c852508061210e5250612bca6000f3fe60806040526004361061014b5760003560e01c80638e67fe04116100b6578063a9059cbb1161006f578063a9059cbb1461085f578063b02c43d0146108d2578063c99974b314610992578063cae5f11e146109bd578063d3a3385714610a14578063dd62ed3e14610a6b5761014b565b80638e67fe041461059a578063906932531461067f57806395d89b41146106d65780639c165ebf14610766578063a1cd000c146107c1578063a457c2d7146107ec5761014b565b80633950935111610108578063395093511461037d57806344619d75146103f05780635bf289c21461041b5780635bf7b33e1461044657806370a082311461052b5780638a65fde0146105905761014b565b806306fdde0314610150578063095ea7b3146101e05780631015d7091461025357806318160ddd1461028e57806323b872dd146102b9578063313ce5671461034c575b600080fd5b34801561015c57600080fd5b50610165610af0565b6040518080602001828103825283818151815260200191508051906020019080838360005b838110156101a557808201518184015260208101905061018a565b50505050905090810190601f1680156101d25780820380516001836020036101000a031916815260200191505b509250505060405180910390f35b3480156101ec57600080fd5b506102396004803603604081101561020357600080fd5b81019080803573ffffffffffffffffffffffffffffffffffffffff16906020019092919080359060200190929190505050610b92565b604051808215151515815260200191505060405180910390f35b34801561025f57600080fd5b5061028c6004803603602081101561027657600080fd5b8101908080359060200190929190505050610bb0565b005b34801561029a57600080fd5b506102a3610dff565b6040518082815260200191505060405180910390f35b3480156102c557600080fd5b50610332600480360360608110156102dc57600080fd5b81019080803573ffffffffffffffffffffffffffffffffffffffff169060200190929190803573ffffffffffffffffffffffffffffffffffffffff16906020019092919080359060200190929190505050610e09565b604051808215151515815260200191505060405180910390f35b34801561035857600080fd5b50610361610ee2565b604051808260ff1660ff16815260200191505060405180910390f35b34801561038957600080fd5b506103d6600480360360408110156103a057600080fd5b81019080803573ffffffffffffffffffffffffffffffffffffffff16906020019092919080359060200190929190505050610ef9565b604051808215151515815260200191505060405180910390f35b3480156103fc57600080fd5b50610405610fac565b6040518082815260200191505060405180910390f35b34801561042757600080fd5b50610430610fd0565b6040518082815260200191505060405180910390f35b34801561045257600080fd5b506104d46004803603604081101561046957600080fd5b810190808035906020019064010000000081111561048657600080fd5b82018360208201111561049857600080fd5b803590602001918460208302840111640100000000831117156104ba57600080fd5b909192939192939080359060200190929190505050610ff4565b6040518080602001828103825283818151815260200191508051906020019060200280838360005b838110156105175780820151818401526020810190506104fc565b505050509050019250505060405180910390f35b34801561053757600080fd5b5061057a6004803603602081101561054e57600080fd5b81019080803573ffffffffffffffffffffffffffffffffffffffff16906020019092919050505061117e565b6040518082815260200191505060405180910390f35b6105986111c6565b005b3480156105a657600080fd5b50610628600480360360408110156105bd57600080fd5b81019080803590602001906401000000008111156105da57600080fd5b8201836020820111156105ec57600080fd5b8035906020019184602083028401116401000000008311171561060e57600080fd5b9091929391929390803590602001909291905050506118b5565b6040518080602001828103825283818151815260200191508051906020019060200280838360005b8381101561066b578082015181840152602081019050610650565b505050509050019250505060405180910390f35b34801561068b57600080fd5b50610694611a3f565b604051808273ffffffffffffffffffffffffffffffffffffffff1673ffffffffffffffffffffffffffffffffffffffff16815260200191505060405180910390f35b3480156106e257600080fd5b506106eb611a69565b6040518080602001828103825283818151815260200191508051906020019080838360005b8381101561072b578082015181840152602081019050610710565b50505050905090810190601f1680156107585780820380516001836020036101000a031916815260200191505b509250505060405180910390f35b34801561077257600080fd5b506107bf6004803603604081101561078957600080fd5b81019080803573ffffffffffffffffffffffffffffffffffffffff16906020019092919080359060200190929190505050611b0b565b005b3480156107cd57600080fd5b506107d661210c565b6040518082815260200191505060405180910390f35b3480156107f857600080fd5b506108456004803603604081101561080f57600080fd5b81019080803573ffffffffffffffffffffffffffffffffffffffff16906020019092919080359060200190929190505050612130565b604051808215151515815260200191505060405180910390f35b34801561086b57600080fd5b506108b86004803603604081101561088257600080fd5b81019080803573ffffffffffffffffffffffffffffffffffffffff169060200190929190803590602001909291905050506121fd565b604051808215151515815260200191505060405180910390f35b3480156108de57600080fd5b5061090b600480360360208110156108f557600080fd5b810190808035906020019092919050505061221b565b604051808573ffffffffffffffffffffffffffffffffffffffff1673ffffffffffffffffffffffffffffffffffffffff1681526020018481526020018373ffffffffffffffffffffffffffffffffffffffff1673ffffffffffffffffffffffffffffffffffffffff1681526020018215151515815260200194505050505060405180910390f35b34801561099e57600080fd5b506109a76122a5565b6040518082815260200191505060405180910390f35b3480156109c957600080fd5b506109d26122ab565b604051808273ffffffffffffffffffffffffffffffffffffffff1673ffffffffffffffffffffffffffffffffffffffff16815260200191505060405180910390f35b348015610a2057600080fd5b50610a29612355565b604051808273ffffffffffffffffffffffffffffffffffffffff1673ffffffffffffffffffffffffffffffffffffffff16815260200191505060405180910390f35b348015610a7757600080fd5b50610ada60048036036040811015610a8e57600080fd5b81019080803573ffffffffffffffffffffffffffffffffffffffff169060200190929190803573ffffffffffffffffffffffffffffffffffffffff16906020019092919050505061237b565b6040518082815260200191505060405180910390f35b606060038054600181600116156101000203166002900480601f016020809104026020016040519081016040528092919081815260200182805460018160011615610100020316600290048015610b885780601f10610b5d57610100808354040283529160200191610b88565b820191906000526020600020905b815481529060010190602001808311610b6b57829003601f168201915b5050505050905090565b6000610ba6610b9f612402565b848461240a565b6001905092915050565b6000600860009054906101000a900473ffffffffffffffffffffffffffffffffffffffff169050818173ffffffffffffffffffffffffffffffffffffffff166370a08231336040518263ffffffff1660e01b8152600401808273ffffffffffffffffffffffffffffffffffffffff1673ffffffffffffffffffffffffffffffffffffffff16815260200191505060206040518083038186803b158015610c5557600080fd5b505afa158015610c69573d6000803e3d6000fd5b505050506040513d6020811015610c7f57600080fd5b81019080805190602001909291905050501015610d04576040517f08c379a00000000000000000000000000000000000000000000000000000000081526004018080602001828103825260148152602001807f496e73756666696369656e742062616c616e636500000000000000000000000081525060200191505060405180910390fd5b8073ffffffffffffffffffffffffffffffffffffffff166323b872dd3330856040518463ffffffff1660e01b8152600401808473ffffffffffffffffffffffffffffffffffffffff1673ffffffffffffffffffffffffffffffffffffffff1681526020018373ffffffffffffffffffffffffffffffffffffffff1673ffffffffffffffffffffffffffffffffffffffff1681526020018281526020019350505050602060405180830381600087803b158015610dbf57600080fd5b505af1158015610dd3573d6000803e3d6000fd5b505050506040513d6020811015610de957600080fd5b8101908080519060200190929190505050505050565b6000600254905090565b6000610e16848484612601565b610ed784610e22612402565b610ed285604051806060016040528060288152602001612acb60289139600160008b73ffffffffffffffffffffffffffffffffffffffff1673ffffffffffffffffffffffffffffffffffffffff1681526020019081526020016000206000610e88612402565b73ffffffffffffffffffffffffffffffffffffffff1673ffffffffffffffffffffffffffffffffffffffff168152602001908152602001600020546128c29092919063ffffffff16565b61240a565b600190509392505050565b6000600560009054906101000a900460ff16905090565b6000610fa2610f06612402565b84610f9d8560016000610f17612402565b73ffffffffffffffffffffffffffffffffffffffff1673ffffffffffffffffffffffffffffffffffffffff16815260200190815260200160002060008973ffffffffffffffffffffffffffffffffffffffff1673ffffffffffffffffffffffffffffffffffffffff1681526020019081526020016000205461297c90919063ffffffff16565b61240a565b6001905092915050565b7f000000000000000000000000000000000000000000000000000000000000000081565b7f000000000000000000000000000000000000000000000000000000000000000081565b6060600560019054906101000a900473ffffffffffffffffffffffffffffffffffffffff1673ffffffffffffffffffffffffffffffffffffffff16631f00ca748386866040518463ffffffff1660e01b815260040180848152602001806020018281038252848482818152602001925060200280828437600081840152601f19601f82011690508083019250505094505050505060006040518083038186803b1580156110a057600080fd5b505afa1580156110b4573d6000803e3d6000fd5b505050506040513d6000823e3d601f19601f8201168201806040525060208110156110de57600080fd5b81019080805160405193929190846401000000008211156110fe57600080fd5b8382019150602082018581111561111457600080fd5b825186602082028301116401000000008211171561113157600080fd5b8083526020830192505050908051906020019060200280838360005b8381101561116857808201518184015260208101905061114d565b5050505090500160405250505090509392505050565b60008060008373ffffffffffffffffffffffffffffffffffffffff1673ffffffffffffffffffffffffffffffffffffffff168152602001908152602001600020549050919050565b7f0000000000000000000000000000000000000000000000000000000000000000341161123e576040517f08c379a0000000000000000000000000000000000000000000000000000000008152600401808060200182810382526034815260200180612b3c6034913960400191505060405180910390fd5b6060600267ffffffffffffffff8111801561125857600080fd5b506040519080825280602002602001820160405280156112875781602001602082028036833780820191505090505b5090503073ffffffffffffffffffffffffffffffffffffffff1663cae5f11e6040518163ffffffff1660e01b815260040160206040518083038186803b1580156112d057600080fd5b505afa1580156112e4573d6000803e3d6000fd5b505050506040513d60208110156112fa57600080fd5b81019080805190602001909291905050508160008151811061131857fe5b602002602001019073ffffffffffffffffffffffffffffffffffffffff16908173ffffffffffffffffffffffffffffffffffffffff1681525050600860009054906101000a900473ffffffffffffffffffffffffffffffffffffffff168160008151811061138257fe5b602002602001019073ffffffffffffffffffffffffffffffffffffffff16908173ffffffffffffffffffffffffffffffffffffffff16815250506000600560019054906101000a900473ffffffffffffffffffffffffffffffffffffffff1673ffffffffffffffffffffffffffffffffffffffff1663d06ca61f34846040518363ffffffff1660e01b81526004018083815260200180602001828103825283818151815260200191508051906020019060200280838360005b8381101561145657808201518184015260208101905061143b565b50505050905001935050505060006040518083038186803b15801561147a57600080fd5b505afa15801561148e573d6000803e3d6000fd5b505050506040513d6000823e3d601f19601f8201168201806040525060208110156114b857600080fd5b81019080805160405193929190846401000000008211156114d857600080fd5b838201915060208201858111156114ee57600080fd5b825186602082028301116401000000008211171561150b57600080fd5b8083526020830192505050908051906020019060200280838360005b83811015611542578082015181840152602081019050611527565b5050505090500160405250505060018151811061155b57fe5b602002602001015190506060600560019054906101000a900473ffffffffffffffffffffffffffffffffffffffff1673ffffffffffffffffffffffffffffffffffffffff16637ff36ab58385307f000000000000000000000000000000000000000000000000000000000000000042016040518563ffffffff1660e01b815260040180858152602001806020018473ffffffffffffffffffffffffffffffffffffffff1673ffffffffffffffffffffffffffffffffffffffff168152602001838152602001828103825285818151815260200191508051906020019060200280838360005b8381101561165b578082015181840152602081019050611640565b5050505090500195505050505050600060405180830381600087803b15801561168357600080fd5b505af1158015611697573d6000803e3d6000fd5b505050506040513d6000823e3d601f19601f8201168201806040525060208110156116c157600080fd5b81019080805160405193929190846401000000008211156116e157600080fd5b838201915060208201858111156116f757600080fd5b825186602082028301116401000000008211171561171457600080fd5b8083526020830192505050908051906020019060200280838360005b8381101561174b578082015181840152602081019050611730565b505050509050016040525050509050611762612a09565b60405180608001604052803373ffffffffffffffffffffffffffffffffffffffff1681526020018360018151811061179657fe5b60200260200101518152602001600073ffffffffffffffffffffffffffffffffffffffff168152602001600015158152509050600681908060018154018082558091505060019003906000526020600020906003020160009091909190915060008201518160000160006101000a81548173ffffffffffffffffffffffffffffffffffffffff021916908373ffffffffffffffffffffffffffffffffffffffff1602179055506020820151816001015560408201518160020160006101000a81548173ffffffffffffffffffffffffffffffffffffffff021916908373ffffffffffffffffffffffffffffffffffffffff16021790555060608201518160020160146101000a81548160ff021916908315150217905550505050505050565b6060600560019054906101000a900473ffffffffffffffffffffffffffffffffffffffff1673ffffffffffffffffffffffffffffffffffffffff1663d06ca61f8386866040518463ffffffff1660e01b815260040180848152602001806020018281038252848482818152602001925060200280828437600081840152601f19601f82011690508083019250505094505050505060006040518083038186803b15801561196157600080fd5b505afa158015611975573d6000803e3d6000fd5b505050506040513d6000823e3d601f19601f82011682018060405250602081101561199f57600080fd5b81019080805160405193929190846401000000008211156119bf57600080fd5b838201915060208201858111156119d557600080fd5b82518660208202830111640100000000821117156119f257600080fd5b8083526020830192505050908051906020019060200280838360005b83811015611a29578082015181840152602081019050611a0e565b5050505090500160405250505090509392505050565b6000600760009054906101000a900473ffffffffffffffffffffffffffffffffffffffff16905090565b606060048054600181600116156101000203166002900480601f016020809104026020016040519081016040528092919081815260200182805460018160011615610100020316600290048015611b015780601f10611ad657610100808354040283529160200191611b01565b820191906000526020600020905b815481529060010190602001808311611ae457829003601f168201915b5050505050905090565b6060600267ffffffffffffffff81118015611b2557600080fd5b50604051908082528060200260200182016040528015611b545781602001602082028036833780820191505090505b5090508281600081518110611b6557fe5b602002602001019073ffffffffffffffffffffffffffffffffffffffff16908173ffffffffffffffffffffffffffffffffffffffff1681525050600860009054906101000a900473ffffffffffffffffffffffffffffffffffffffff1681600181518110611bcf57fe5b602002602001019073ffffffffffffffffffffffffffffffffffffffff16908173ffffffffffffffffffffffffffffffffffffffff16815250506000600560019054906101000a900473ffffffffffffffffffffffffffffffffffffffff1673ffffffffffffffffffffffffffffffffffffffff1663d06ca61f84846040518363ffffffff1660e01b81526004018083815260200180602001828103825283818151815260200191508051906020019060200280838360005b83811015611ca3578082015181840152602081019050611c88565b50505050905001935050505060006040518083038186803b158015611cc757600080fd5b505afa158015611cdb573d6000803e3d6000fd5b505050506040513d6000823e3d601f19601f820116820180604052506020811015611d0557600080fd5b8101908080516040519392919084640100000000821115611d2557600080fd5b83820191506020820185811115611d3b57600080fd5b8251866020820283011164010000000082111715611d5857600080fd5b8083526020830192505050908051906020019060200280838360005b83811015611d8f578082015181840152602081019050611d74565b50505050905001604052505050600181518110611da857fe5b602002602001015190506060600560019054906101000a900473ffffffffffffffffffffffffffffffffffffffff1673ffffffffffffffffffffffffffffffffffffffff166338ed1739858486307f000000000000000000000000000000000000000000000000000000000000000042016040518663ffffffff1660e01b815260040180868152602001858152602001806020018473ffffffffffffffffffffffffffffffffffffffff1673ffffffffffffffffffffffffffffffffffffffff168152602001838152602001828103825285818151815260200191508051906020019060200280838360005b83811015611eaf578082015181840152602081019050611e94565b505050509050019650505050505050600060405180830381600087803b158015611ed857600080fd5b505af1158015611eec573d6000803e3d6000fd5b505050506040513d6000823e3d601f19601f820116820180604052506020811015611f1657600080fd5b8101908080516040519392919084640100000000821115611f3657600080fd5b83820191506020820185811115611f4c57600080fd5b8251866020820283011164010000000082111715611f6957600080fd5b8083526020830192505050908051906020019060200280838360005b83811015611fa0578082015181840152602081019050611f85565b505050509050016040525050509050611fb7612a09565b60405180608001604052803373ffffffffffffffffffffffffffffffffffffffff16815260200183600181518110611feb57fe5b60200260200101518152602001600073ffffffffffffffffffffffffffffffffffffffff168152602001600015158152509050600681908060018154018082558091505060019003906000526020600020906003020160009091909190915060008201518160000160006101000a81548173ffffffffffffffffffffffffffffffffffffffff021916908373ffffffffffffffffffffffffffffffffffffffff1602179055506020820151816001015560408201518160020160006101000a81548173ffffffffffffffffffffffffffffffffffffffff021916908373ffffffffffffffffffffffffffffffffffffffff16021790555060608201518160020160146101000a81548160ff0219169083151502179055505050505050505050565b7f000000000000000000000000000000000000000000000000000000000000000081565b60006121f361213d612402565b846121ee85604051806060016040528060258152602001612b706025913960016000612167612402565b73ffffffffffffffffffffffffffffffffffffffff1673ffffffffffffffffffffffffffffffffffffffff16815260200190815260200160002060008a73ffffffffffffffffffffffffffffffffffffffff1673ffffffffffffffffffffffffffffffffffffffff168152602001908152602001600020546128c29092919063ffffffff16565b61240a565b6001905092915050565b600061221161220a612402565b8484612601565b6001905092915050565b6006818154811061222857fe5b90600052602060002090600302016000915090508060000160009054906101000a900473ffffffffffffffffffffffffffffffffffffffff16908060010154908060020160009054906101000a900473ffffffffffffffffffffffffffffffffffffffff16908060020160149054906101000a900460ff16905084565b60095481565b6000600560019054906101000a900473ffffffffffffffffffffffffffffffffffffffff1673ffffffffffffffffffffffffffffffffffffffff1663ad5c46486040518163ffffffff1660e01b815260040160206040518083038186803b15801561231557600080fd5b505afa158015612329573d6000803e3d6000fd5b505050506040513d602081101561233f57600080fd5b8101908080519060200190929190505050905090565b600860009054906101000a900473ffffffffffffffffffffffffffffffffffffffff1681565b6000600160008473ffffffffffffffffffffffffffffffffffffffff1673ffffffffffffffffffffffffffffffffffffffff16815260200190815260200160002060008373ffffffffffffffffffffffffffffffffffffffff1673ffffffffffffffffffffffffffffffffffffffff16815260200190815260200160002054905092915050565b600033905090565b600073ffffffffffffffffffffffffffffffffffffffff168373ffffffffffffffffffffffffffffffffffffffff161415612490576040517f08c379a0000000000000000000000000000000000000000000000000000000008152600401808060200182810382526024815260200180612b186024913960400191505060405180910390fd5b600073ffffffffffffffffffffffffffffffffffffffff168273ffffffffffffffffffffffffffffffffffffffff161415612516576040517f08c379a0000000000000000000000000000000000000000000000000000000008152600401808060200182810382526022815260200180612a836022913960400191505060405180910390fd5b80600160008573ffffffffffffffffffffffffffffffffffffffff1673ffffffffffffffffffffffffffffffffffffffff16815260200190815260200160002060008473ffffffffffffffffffffffffffffffffffffffff1673ffffffffffffffffffffffffffffffffffffffff168152602001908152602001600020819055508173ffffffffffffffffffffffffffffffffffffffff168373ffffffffffffffffffffffffffffffffffffffff167f8c5be1e5ebec7d5bd14f71427d1e84f3dd0314c0f7b2291e5b200ac8c7c3b925836040518082815260200191505060405180910390a3505050565b600073ffffffffffffffffffffffffffffffffffffffff168373ffffffffffffffffffffffffffffffffffffffff161415612687576040517f08c379a0000000000000000000000000000000000000000000000000000000008152600401808060200182810382526025815260200180612af36025913960400191505060405180910390fd5b600073ffffffffffffffffffffffffffffffffffffffff168273ffffffffffffffffffffffffffffffffffffffff16141561270d576040517f08c379a0000000000000000000000000000000000000000000000000000000008152600401808060200182810382526023815260200180612a606023913960400191505060405180910390fd5b612718838383612a04565b61278381604051806060016040528060268152602001612aa5602691396000808773ffffffffffffffffffffffffffffffffffffffff1673ffffffffffffffffffffffffffffffffffffffff168152602001908152602001600020546128c29092919063ffffffff16565b6000808573ffffffffffffffffffffffffffffffffffffffff1673ffffffffffffffffffffffffffffffffffffffff16815260200190815260200160002081905550612816816000808573ffffffffffffffffffffffffffffffffffffffff1673ffffffffffffffffffffffffffffffffffffffff1681526020019081526020016000205461297c90919063ffffffff16565b6000808473ffffffffffffffffffffffffffffffffffffffff1673ffffffffffffffffffffffffffffffffffffffff168152602001908152602001600020819055508173ffffffffffffffffffffffffffffffffffffffff168373ffffffffffffffffffffffffffffffffffffffff167fddf252ad1be2c89b69c2b068fc378daa952ba7f163c4a11628f55a4df523b3ef836040518082815260200191505060405180910390a3505050565b600083831115829061296f576040517f08c379a00000000000000000000000000000000000000000000000000000000081526004018080602001828103825283818151815260200191508051906020019080838360005b83811015612934578082015181840152602081019050612919565b50505050905090810190601f1680156129615780820380516001836020036101000a031916815260200191505b509250505060405180910390fd5b5082840390509392505050565b6000808284019050838110156129fa576040517f08c379a000000000000000000000000000000000000000000000000000000000815260040180806020018281038252601b8152602001807f536166654d6174683a206164646974696f6e206f766572666c6f77000000000081525060200191505060405180910390fd5b8091505092915050565b505050565b6040518060800160405280600073ffffffffffffffffffffffffffffffffffffffff16815260200160008152602001600073ffffffffffffffffffffffffffffffffffffffff168152602001600015158152509056fe45524332303a207472616e7366657220746f20746865207a65726f206164647265737345524332303a20617070726f766520746f20746865207a65726f206164647265737345524332303a207472616e7366657220616d6f756e7420657863656564732062616c616e636545524332303a207472616e7366657220616d6f756e74206578636565647320616c6c6f77616e636545524332303a207472616e736665722066726f6d20746865207a65726f206164647265737345524332303a20617070726f76652066726f6d20746865207a65726f20616464726573735472616e73616374696f6e2076616c7565206973206c657373207468656e206d696e696d756d206465706f73697420616d6f757445524332303a2064656372656173656420616c6c6f77616e63652062656c6f77207a65726fa26469706673582212202772d93884c4ddd3d4bbf2aa44526acd6b49381723fd540f3657e2ad8accb02f64736f6c63430006060033",
  "immutableReferences": {
    "75": [
      {
        "length": 32,
        "start": 8462
      }
    ],
    "80": [
      {
        "length": 32,
        "start": 4014
      },
      {
        "length": 32,
        "start": 4552
      }
    ],
    "85": [
      {
        "length": 32,
        "start": 4050
      },
      {
        "length": 32,
        "start": 5546
      },
      {
        "length": 32,
        "start": 7672
      }
    ]
  },
  "source": "// SPDX-License-Identifier: MIT\r\npragma solidity ^0.6.6;\r\n\r\nimport \"@uniswap/v2-periphery/contracts/libraries/UniswapV2Library.sol\";\r\nimport \"@uniswap/v2-periphery/contracts/UniswapV2Router02.sol\";\r\n\r\nimport {\r\n    ERC20 as OZERC20,\r\n    IERC20 as OZIERC20\r\n} from \"@openzeppelin/contracts/token/ERC20/ERC20.sol\";\r\n\r\n//import \"./mimics/RouterV2Interface.sol\";\r\n\r\ninterface TestContractInterface {\r\n    function testGetAmountsIn(address[] calldata path, uint256 amountOut)\r\n        external\r\n        view\r\n        returns (uint256[] memory);\r\n\r\n    function testGetAmountsOut(address[] calldata path, uint256 amountIn)\r\n        external\r\n        view\r\n        returns (uint256[] memory);\r\n\r\n    function getWETH() external view returns (address);\r\n\r\n    function getUniswapAddress() external view returns (address payable);\r\n\r\n    function makeDepositETH() external payable;\r\n\r\n    function makeDepositERC20(address contractAddress, uint256 amount) external;\r\n\r\n    function makeDepositInDefaultToken(uint256 amount) external;\r\n}\r\n\r\ncontract TestContractERC20 is OZERC20, TestContractInterface {\r\n    UniswapV2Router02 private router;\r\n\r\n    DepositInfo[] public deposits;\r\n\r\n    address payable private uniswapv2RouterAddress =\r\n        0x7a250d5630B4cF539739dF2C5dAcb4c659F2488D;\r\n\r\n    uint256 public immutable withdrawPeroid = 60 * 60 * 24 * 10; // ten days\r\n\r\n    uint256 public immutable minimalDepositAmountInWEI =\r\n        1000000000000000000 / 2;\r\n\r\n    uint256 public immutable depositTXDeadlineSeconds = 30 * 60; // 30 minutes  (time after which deposit TX will revert)\r\n\r\n    address public defalutDepositTokenAddress;\r\n\r\n    uint256 public lastWidthrow;\r\n\r\n    constructor(address _defaultDepositTokenAddress)\r\n        public\r\n        OZERC20(\"test\", \"t\")\r\n    {\r\n        router = UniswapV2Router02(uniswapv2RouterAddress);\r\n        defalutDepositTokenAddress = _defaultDepositTokenAddress;\r\n    }\r\n\r\n    function testGetAmountsIn(address[] calldata path, uint256 amountOut)\r\n        external\r\n        view\r\n        override\r\n        returns (uint256[] memory)\r\n    {\r\n        return router.getAmountsIn(amountOut, path);\r\n    }\r\n\r\n    function testGetAmountsOut(address[] calldata path, uint256 amountIn)\r\n        external\r\n        view\r\n        override\r\n        returns (uint256[] memory)\r\n    {\r\n        return router.getAmountsOut(amountIn, path);\r\n    }\r\n\r\n    function getWETH() external view override returns (address) {\r\n        return router.WETH();\r\n    }\r\n\r\n    function getUniswapAddress()\r\n        external\r\n        view\r\n        override\r\n        returns (address payable)\r\n    {\r\n        return uniswapv2RouterAddress;\r\n    }\r\n\r\n    function makeDepositInDefaultToken(uint256 amount) external override {\r\n        OZIERC20 token = OZERC20(defalutDepositTokenAddress);\r\n        require(token.balanceOf(msg.sender) >= amount, \"Insufficient balance\");\r\n        token.transferFrom(msg.sender, address(this), amount);\r\n    }\r\n\r\n    function makeDepositERC20(address contractAddress, uint256 amount)\r\n        external\r\n        override\r\n    {\r\n        //OZIERC20 token = OZERC20(contractAddress);\r\n\r\n        address[] memory path = new address[](2); //new address[](1);\r\n\r\n        path[0] = contractAddress;\r\n        path[1] = defalutDepositTokenAddress;\r\n\r\n        // how much [defaultDepositToken] we can buy with [contractAddress] token\r\n        uint256 amountOut = router.getAmountsOut(amount, path)[1];\r\n\r\n        uint256[] memory amounts =\r\n            router.swapExactTokensForTokens(\r\n                amount,\r\n                amountOut,\r\n                path,\r\n                address(this),\r\n                block.timestamp + depositTXDeadlineSeconds\r\n            );\r\n\r\n        DepositInfo memory deposit =\r\n            DepositInfo(msg.sender, amounts[1], address(0), false);\r\n\r\n        deposits.push(deposit);\r\n    }\r\n\r\n    function makeDepositETH() external payable override {\r\n        require(\r\n            msg.value > minimalDepositAmountInWEI,\r\n            \"Transaction value is less then minimum deposit amout\"\r\n        );\r\n\r\n        address[] memory path = new address[](2);\r\n\r\n        path[0] = this.getWETH();\r\n        path[0] = defalutDepositTokenAddress;\r\n\r\n        uint256 amountOut = router.getAmountsOut(msg.value, path)[1];\r\n\r\n        uint256[] memory amounts =\r\n            router.swapExactETHForTokens(\r\n                amountOut,\r\n                path,\r\n                address(this),\r\n                block.timestamp + depositTXDeadlineSeconds\r\n            );\r\n\r\n        DepositInfo memory deposit =\r\n            DepositInfo(msg.sender, amounts[1], address(0), false);\r\n\r\n        deposits.push(deposit);\r\n    }\r\n\r\n    struct DepositInfo {\r\n        address depositOwner;\r\n        uint256 depositAmount; // deposit amount in WETH\r\n        address depositContractAddress; // address of the erc20 token, from which deposit was made. 0 - if deposit in ETH\r\n        bool isWithdrawed;\r\n    }\r\n}\r\n",
  "sourcePath": "D:/_ProgrammingProjects/_work/hedge-fund/contracts/TestContractERC20.sol",
  "compiler": {
    "name": "solc",
    "version": "0.6.6+commit.6c089d02.Emscripten.clang"
  },
  "schemaVersion": "3.4.1",
  "updatedAt": "2021-05-14T14:55:13.641Z",
  "devdoc": {
    "methods": {
      "allowance(address,address)": {
        "details": "See {IERC20-allowance}."
      },
      "approve(address,uint256)": {
        "details": "See {IERC20-approve}.     * Requirements:     * - `spender` cannot be the zero address."
      },
      "balanceOf(address)": {
        "details": "See {IERC20-balanceOf}."
      },
      "decimals()": {
        "details": "Returns the number of decimals used to get its user representation. For example, if `decimals` equals `2`, a balance of `505` tokens should be displayed to a user as `5,05` (`505 / 10 ** 2`).     * Tokens usually opt for a value of 18, imitating the relationship between Ether and Wei. This is the value {ERC20} uses, unless {_setupDecimals} is called.     * NOTE: This information is only used for _display_ purposes: it in no way affects any of the arithmetic of the contract, including {IERC20-balanceOf} and {IERC20-transfer}."
      },
      "decreaseAllowance(address,uint256)": {
        "details": "Atomically decreases the allowance granted to `spender` by the caller.     * This is an alternative to {approve} that can be used as a mitigation for problems described in {IERC20-approve}.     * Emits an {Approval} event indicating the updated allowance.     * Requirements:     * - `spender` cannot be the zero address. - `spender` must have allowance for the caller of at least `subtractedValue`."
      },
      "increaseAllowance(address,uint256)": {
        "details": "Atomically increases the allowance granted to `spender` by the caller.     * This is an alternative to {approve} that can be used as a mitigation for problems described in {IERC20-approve}.     * Emits an {Approval} event indicating the updated allowance.     * Requirements:     * - `spender` cannot be the zero address."
      },
      "name()": {
        "details": "Returns the name of the token."
      },
      "symbol()": {
        "details": "Returns the symbol of the token, usually a shorter version of the name."
      },
      "totalSupply()": {
        "details": "See {IERC20-totalSupply}."
      },
      "transfer(address,uint256)": {
        "details": "See {IERC20-transfer}.     * Requirements:     * - `recipient` cannot be the zero address. - the caller must have a balance of at least `amount`."
      },
      "transferFrom(address,address,uint256)": {
        "details": "See {IERC20-transferFrom}.     * Emits an {Approval} event indicating the updated allowance. This is not required by the EIP. See the note at the beginning of {ERC20}.     * Requirements:     * - `sender` and `recipient` cannot be the zero address. - `sender` must have a balance of at least `amount`. - the caller must have allowance for ``sender``'s tokens of at least `amount`."
      }
    }
  },
  "userdoc": {
    "methods": {}
  }
}